:020000040800F2
:1000000000000220A13300086D04000871040008FC
:1000100075040008790400087D0400080000000051
:100020000000000000000000000000008104000843
:100030008504000800000000890400088D04000801
:10004000E9330008E9330008E9330008E933000820
:10005000E9330008E9330008E9330008E933000810
:10006000E9330008E9330008E9330008E933000800
:10007000E9330008E9330008E9330008E9330008F0
:10008000E9330008E9330008E9330008E9330008E0
:10009000E9330008E9330008E9330008E9330008D0
:1000A000E9330008E9330008E9330008E9330008C0
:1000B000E9330008E9330008E9330008E9330008B0
:1000C000E9330008E9330008E9330008E9330008A0
:1000D000E9330008E9330008E9330008E933000890
:1000E000E9330008E933000891040008E933000807
:1000F000E9330008E9330008E9330008E933000870
:10010000E9330008E9330008E9330008E93300085F
:10011000E9330008E9330008E9330008E93300084F
:10012000E9330008E9330008E9330008E93300083F
:10013000E9330008E9330008E9330008E93300082F
:10014000E9330008E9330008E9330008CD0400086A
:10015000E9330008E9330008E9330008E93300080F
:10016000E9330008E9330008E9330008E9330008FF
:10017000E9330008E9330008E9330008E9330008EF
:08018000E9330008E93300082F
:1001880030B5174D0FCD8FB001AC0FC40FCD0FC4D4
:100198000FCD0FC42B68134D134823604FF4004153
:1001A80001F0F8FA0DF136040DF1020005F5805161
:1001B800412230F8023FB3F5805F38BF5B1903D2A4
:1001C80003F8012B8B42FBD10132A042D2B2F0D10D
:1001D80005484FF400410FB0BDE8304001F0DCBAEB
:1001E800EC33000874010020000C024000B50A4BF3
:1001F80083B01B788DF80630042148F2080250239A
:100208000DEB0100ADF804208DF8073000F002FB7B
:1002180003B05DF804FB00BF751100202DE9F04123
:10022800214E224C307082B033788DF8023049F27A
:100238000802502304216846ADF800208DF80330E9
:100248001B4FDFF874801B4D00F0E4FA0DE02388A3
:100258009BB2638001F018F863889BB218F80330EA
:100268002B702A7833789A4217D863889BB2B3F5F3
:10027800AF7F3846EBD833788DF80630042148F242
:10028800080250230DEB0100ADF804208DF807306B
:1002980000F0C0FA02B0BDE8F0813078FFF7A6FFA1
:1002A8002878FFF7BBFFE0E7751100204C0100201C
:1002B800002201407411002074010020164B1748D9
:1002C8001B68174A174930B5A0FB03039B09013B7C
:1002D800F0250020072485B0536081F823509060F2
:1002E80001211460082000F003FE4FF4704240F230
:1002F800013302A90C48CDE9022301F0CFF90B48DC
:1003080002F0DEFF0A4B00930A4A0B4B0B4801210F
:1003180001F060FB05B030BD10000020D34D621025
:1003280010E000E000ED00E0000C0240700000204A
:10033800140000205400002020010020801100201B
:10034800054B1A6812B11A68013A1A60034A136811
:1003580001331360704700BF781100207C11002022
:1003680082B0044A0190019B13601368002BFCD1F2
:1003780002B0704778110020704700BF2DE9F041A6
:100388003248DFF8DC80324E9CB0012100F0B0FD2D
:1003980001214FF4806000F0DBFD2E4B0F932E4AB5
:1003A8000E924FF080614FF40053002401254FF462
:1003B800006240460D914FF4807715930DA94FF4D4
:1003C8000033CDE916731492CDE91244CDE91A44ED
:1003D800109418941195199500F038FB2946404659
:1003E80000F072FB04220DEB020103231B4801926B
:1003F8008DF808308DF80B4001F050F903A8CDE9CD
:100408000344CDE9054400F0A3FE304607A9ADF842
:100418002070079409940B948DF8305000F068FE12
:1004280023462A4630460C2100F0E4FE2946304691
:1004380000F06EFF2946304600F060FF294630463E
:1004480000F0A0FE1CB0BDE8F08100BF0400400031
:10045800002201404C0100204C22014000080240CB
:1004680010640240704700BFFEE700BFFEE700BF10
:10047800FEE700BFFEE700BF704700BF704700BF40
:10048800704700BFFFF75CBF10B50C4CA37A2BB9BF
:10049800BDE810404FF4802001F06EB8084A136898
:1004A80023F00603136000F013F8204602F0F0F979
:1004B800BDE810404FF4802001F05EB880110020A4
:1004C80010ED00E0014802F0EDBB00BF80110020F4
:1004D8003849394BD1F88820384842F47002C1F8BD
:1004E80088201A68002142F001021A6099601A688F
:1004F80022F0847222F480321A6058601A6882B03E
:1005080022F480221A60D960009101911A6842F49D
:1005180080321A6003E0009AB2F5A06F09D01A6819
:1005280002F400320192009A01320092019A002AE4
:10053800F1D0214B1B6813F4003318BF012301933A
:10054800019B012B05D01B4B4FF000629A6002B053
:100558007047194B1A491A6C1A4842F080521A64AB
:100568000A6842F480420A609A689A609A6842F47B
:1005780000429A609A6842F4A0529A6058601A68D9
:1005880042F080721A601A689201FCD50E4A0A4934
:1005980040F2056010609A6822F003029A609A6837
:1005A80042F002029A608B6803F00C03082BFAD120
:1005B800C9E700BF00ED00E0003802401030002419
:1005C8000070004008544007003C0240154A9368F8
:1005D80003F00C03042B0BD0082B0BD0124B114A41
:1005E80012499268C2F303128A5CD3400B617047C8
:1005F8000F4BF4E75068516852684302C2F38812FF
:100608004CBF0B4B084B01F03F01B3FBF1F303FB6D
:1006180002F3044A5268C2F3014201325200B3FBAA
:10062800F2F3DCE7003802400024F4000000002068
:1006380040787D01704700BF704700BF704700BF1A
:10064800704700BF704700BF704700BF704700BFCA
:10065800122301480B807047300000200423014812
:100668000B8070474400002010B5044C04480A462B
:10067800214601F051FC204610BD00BF7017002034
:10068800203400080A4608B5054920B9054801F094
:1006980043FC034808BD044801F03EFC004808BD7F
:1006A8007017002034340008543400080A4608B58E
:1006B800054920B9054801F02FFC034808BD044846
:1006C80001F02AFC004808BD7017002074340008A7
:1006D8008434000810B5044C04480A46214601F049
:1006E8001BFC204610BD00BF701700209434000882
:1006F80010B5044C04480A46214601F00DFC20467A
:1007080010BD00BF70170020A0340008704700BF5C
:10071800704700BF30B50121244C83B0084600F073
:10072800E7FB40F20233204669464FF4D852CDE940
:10073800002300F0B3FF20460A22082101F03AF80E
:1007480020460A22092101F035F820460A220B2109
:1007580001F030F820460A220C2101F02BF84FF462
:10076800806540F20113694620460322ADF8063041
:100778008DF80520009500F091FF0A2211462046C9
:1007880001F018F801214FF4804000F0E1FB01214D
:10079800802000F0B9FB01214FF0805000F008FCE8
:1007A800012000F0E9FE03B030BD00BF00000240A8
:1007B80000B54FF4C06083B000F050F8034B0193CC
:1007C80001A800F055F803B05DF804FB43010301EC
:1007D800704700BF704700BF0020704799B170B4E0
:1007E8000A4A0B4E44180025136810F8011BF154EF
:1007F8000133B3F5006F08BF2B46A0421360F3D155
:10080800002070BC70470020704700BF6C010020BA
:10081800E417002091B170B4094A0A4E4418002523
:10082800136810F8011BF1540133B3F5006F08BFCA
:100838002B46A0421360F3D170BC7047704700BFCD
:100848006C010020E4170020B034000800000020EC
:100858004C0100204C010020E81F0020034B40F011
:10086800BF6040F40030D860704700BF00ED00E082
:10087800C37803B3164B30B4D96844788278154DE1
:100888000078C943C1F30221C1F10403DBB29C40E3
:100898000F230B41E4B21340234329181B0100F036
:1008A8001F0401224009DBB2A24081F8003345F859
:1008B800202030BC7047037806485A09203203F0DC
:1008C8001F03012101FA03F340F82230704700BFEB
:1008D80000ED00E000E100E021F06041024B21F072
:1008E8007F0108439860704700ED00E021B1054B97
:1008F8001A69104318617047024A136923EA000015
:100908001061704700ED00E0044A136804280CBF2A
:1009180043F0040323F004031360704710E000E081
:1009280002683649002310B422F0010221248842CB
:100938000260036043608360C3600361446138D030
:100948002F4B98422ED02F4B98423CD02E4B98429A
:1009580040D02E4B984232D02D4B984241D02D4B4F
:10096800984246D02C4B984217D02C4B98423CD0FA
:100978002B4B984216D02B4B984224D02A4B9842A6
:1009880028D02A4B98421AD0294B984229D0294B73
:1009980098422ED0284B984208D14FF03D5243F848
:1009A800AC2C03E04FF4746243F8202C5DF8044B40
:1009B8007047224B5DF8044B3D229A607047204AED
:1009C80043F8642CF2E74FF474125DF8044B43F8D3
:1009D800382C70474FF074625DF8044B43F8502C84
:1009E8007047184A43F87C2CE0E73D2243F8082C6E
:1009F800DCE7154A43F8942CD8E700BF10600240A2
:100A08002860024040600240586002407060024026
:100A180088600240A0600240B86002401064024052
:100A280028640240406402405864024070640240F6
:100A380088640240A0640240B8640240006002403A
:100A48003D000020400F002000003D200B6870B4DE
:100A5800D1E90524CD682B431343D1E90725234366
:100A68001343D1E909422B43D1E90D6523431343CD
:100A780004680B4A334322402B4313430360D1E9F4
:100A88000B3442690D6922F0070223431343D1E96D
:100A9800014243614560846070BCC260704700BF1A
:100AA8003F801CF00023C0E90033C0E90233C0E9ED
:100AB8000433C0E90633C0E90833C0E90A33C0E9A2
:100AC8000C338363704700BF036819B143F0010317
:100AD8000360704723F0010303607047036819B18E
:100AE80043F400430360704723F4004303607047F6
:100AF800036819B143F020030360704723F0200313
:100B08000360704741607047406880B2704700BF1B
:100B1800036822B143F4002303600161704723F4A2
:100B28000023036001617047036819B143F480230F
:100B38000360704723F48023036070470AB10161A2
:100B48007047C160704700BF0068C0F3C04070477D
:100B5800006800F001007047406900F038007047F5
:100B68000B4B0C4A10B40C4CA04294BF18461046CC
:100B78008B004CBF436803685DF8044B194021F0B3
:100B8800F02020F08210003818BF0120704700BF05
:100B980000600240006402400F64024010B4094B38
:100BA800094C0A4AA04294BF1846104611F0005F4B
:100BB80021F0F02121F082115DF8044B14BFC160CF
:100BC80081607047006002400F6402400064024088
:100BD8000B060CD54369AAB143F080038029436111
:100BE8000FD0036801F01E01194301607047802986
:100BF80007D0002AF5D1036801F01E0123EA01019C
:100C08000160704723F0800380294361F3D1704766
:100C180030B4114B114D124C21F0F02222F0C312C6
:100C2800A84288BF23469AB1006800EAD12000F0A4
:100C38001E0288004CBF58681868084020F0F02051
:100C480020F0821010B1101E18BF012030BC704770
:100C5800426902F08002ECE7006002400F64024043
:100C680000640240FFF79ABF0A4B0B481A6800213C
:100C780042F001021A6099601A6822F0847222F424
:100C880080321A6058601A6822F480221A60D9608B
:100C9800704700BF0038024010300024024B002289
:100CA8001A701870704700BF0238024082B00023E3
:100CB8000949019300E04AB90A68019B013301938D
:100CC800019BB3F5A06F02F40032F4D1024B18680F
:100CD800C0F3404002B0704700380240034A13682E
:100CE80023F0F80343EAC00313607047003802405A
:100CF800014B1860704700BF00004742064B0022B6
:100D080001281A701A7005D0042802D105221A7019
:100D1800704770471870704770380240014B186070
:100D2800704700BF800E474230B4029D064C40EA2F
:100D380005605B080843013B40EA821040EA034033
:100D4800606030BC704700BF00380240014B18603B
:100D5800704700BF60004742034B090741EA801013
:100D6800C3F88400704700BF00380240014B186088
:100D7800704700BF68004742014B1860704700BFCA
:100D88004C004742034A936823F0EC63194301433C
:100D98009160704700380240034A936823F0784313
:100DA800194301439160704700380240034A936831
:100DB80023F0030303439360704700BF00380240E9
:100DC800024B986800F00C00704700BF00380240E2
:100DD800034A936823F0F00303439360704700BF0E
:100DE80000380240034A936823F4E05303439360B6
:100DF800704700BF00380240034A936823F46043F9
:100E080043EAC00393607047003802401F4A936862
:100E180003F00C03042B10B41BD0082B1CD01C4B64
:100E280003601A4A1B499468C4F303140C5DE34039
:100E380043609468C4F382240C5D23FA04F484604C
:100E480092685DF8044BC2F342328A5CD340C360B7
:100E58007047114B0360E4E75468516852686302B5
:100E6800C2F388124CBF0C4B094B01F03F01B3FB96
:100E7800F1F303FB02F3054A5268C2F3014201325F
:100E88005200B3FBF2F30360CBE700BF0038024027
:100E98000024F4007800002040787D0100F44073BD
:100EA800B3F5407F09D108498A6820F0704322F4DD
:100EB800F81223F4407313438B60034B1A6FC0F38B
:100EC8000B0010431867704700380240014B186048
:100ED800704700BF3C0E4742014B1860704700BF87
:100EE800400E4742014B1860704700BF5C01474203
:100EF800044A136B11B118431063704723EA0000CA
:100F08001063704700380240044A536B11B118430C
:100F18005063704723EA000050637047003802406E
:100F2800044A936B11B118439063704723EA000099
:100F38009063704700380240044A136C11B118439B
:100F48001064704723EA00001064704700380240BC
:100F5800044A536C11B118435064704723EA0000E7
:100F68005064704700380240044A136911B11843AD
:100F78001061704723EA0000106170470038024092
:100F8800044A536911B118435061704723EA0000BD
:100F98005061704700380240044A936911B1184300
:100FA8009061704723EA0000906170470038024062
:100FB800044A136A11B118431062704723EA00000B
:100FC8001062704700380240044A536A11B118434E
:100FD8005062704723EA00005062704700380240B0
:100FE800044A136D11B118431065704723EA0000D5
:100FF8001065704700380240044A536D11B1184318
:101008005065704723EA0000506570470038024079
:10101800044A936D11B118439065704723EA0000A4
:101028009065704700380240044A136E11B11843A6
:101038001066704723EA00001066704700380240C7
:10104800044A536E11B118435066704723EA0000F2
:101058005066704700380240044A137811B11843AB
:101068001070704723EA0000107070470D38024076
:101078004309012B0BD0022B094B0CBF1B6F5B6F75
:1010880000F01F0023FA00F000F001007047044B45
:101098001B6800F01F0023FA00F000F00100704701
:1010A80000380240024A536F43F080735367704719
:1010B80000380240034BDB68184214BF01200020AF
:1010C800704700BF00380240014B1870704700BFDE
:1010D8000E38024008B501214FF48070FFF774FF05
:1010E800BDE8084000214FF48070FFF76DBF00BFD6
:1010F80042680B6970B422F040720E790D688C68F2
:1011080022F4807242EA06222A434260CE68856849
:10111800094A33432A4023434C79134343EA44039F
:1011280083600A7DC36A013AD2B223F4700343EAAA
:10113800025370BCC3627047FDF7FFC00023012251
:10114800C0E902330275036083800361704700BF02
:101158000749084A30B4D0E900354C682240D0E944
:1011680002402B4313432343034330BC4B60704777
:1011780000230140E030FCFF0023C0E90033C0E950
:1011880002337047836819B143F0010383607047E5
:1011980023F0010383607047436823F4400323F47A
:1011A800007319434160704741628262704700BF13
:1011B800436823F01F03194341607047054A536889
:1011C80018B143F400035360704723F400035360DD
:1011D800704700BF00230140054A536818B143F423
:1011E80080035360704723F480035360704700BF47
:1011F80000230140092970B41BD9A1F10A0404EBAA
:101208004404C5680726A640A34025EA06042343EC
:10121800062AC36019D8013A436B02EB82021F24E5
:10122800944001FA02F223EA04010A4370BC4263C3
:101238007047046901EB41060725B540B34024EA2D
:1012480005042343062A0361E5D90C2A0DD8073A79
:10125800036B02EB82021F24944001FA02F223EA94
:1012680004010A4370BC026370470D3AC46A02EB7A
:1012780082021F25954001FA02F324EA050213436E
:1012880070BCC362704700BF836843F080438360CB
:10129800704700BF8068C0F380507047836819B1F9
:1012A80043F480638360704723F4806383607047EE
:1012B800836819B143F002038360704723F0020387
:1012C800836070474368013923F4604343EA41333C
:1012D80043607047436819B143F400634360704743
:1012E80023F4006343607047C06C80B2704700BF4E
:1012F800014B1868704700BF08230140836819B183
:1013080043F480738360704723F48073836070476D
:10131800836819B143F400738360704723F4007342
:1013280083607047054A536818B143F4005353600B
:10133800704723F400535360704700BF00230140F7
:10134800092970B41DD9A1F10A0404EB4404C56845
:101358000726A640A34025EA06042343C360846BFE
:10136800931CC4F301529B1ADBB203EB83031F22C5
:101378009A4024EA020401FA03F32343836370BC0E
:101388007047046901EB41060725B540B34024EADC
:10139800050423430361E2E7836B013923F4401317
:1013A80043EA01538363704782B00023019301909D
:1013B800019B19440191019B1A6002B0704700BF5C
:1013C800836823F47023194381607047836823F48A
:1013D8004013194381607047836843F48003836036
:1013E800704700BFFFF756BF436819B143F48063E5
:1013F8004360704723F4806343607047436819B1C2
:1014080043F480534360704723F48053436070472C
:1014180082B0002301930190019B28330B44019370
:10142800019B186880B202B0704700BFC9B201239F
:101438008B40416812B10B434360704721EA0303B4
:10144800436070470368194214BF012000207047A9
:10145800C9430160704700BF4268006810EA112064
:1014680007D00123C9B203FA01F1114214BF18468B
:10147800002070476FEA112101607047044B05494D
:1014880000221A605A609A60DA605961704700BF9A
:10149800003C0140FFFF7F00837943B31E4B016886
:1014A8001A6822EA010210B41A605A6822EA010294
:1014B8005A60027902F1804202F59E321468214393
:1014C80011609968026821EA02019960D96821EAE5
:1014D8000201D9604179102914D001F1804303F544
:1014E8009E335DF8044B19680A431A607047037904
:1014F800016803F1804303F59E331A6822EA01026A
:101508001A60704799685DF8044B11439960D9686F
:101518000A43DA60704700BF003C014000234FF4E3
:101528004062828003608371704700BF024A13697A
:1015380018431061704700BF003C0140034B5B69D2
:10154800034214BF01200020704700BF003C014047
:10155800014B5861704700BF003C0140054B1A68B9
:101568005B69034004D0024214BF01200020704789
:1015780018467047003C0140014B5861704700BF56
:10158800003C014008B53C4B984222D03B4B984266
:1015980029D03B4B984230D03A4B98420FD03A4B27
:1015A800984234D0394B98423BD0394B984242D07C
:1015B800384B984255D0384B984246D008BD012147
:1015C8000820FFF7D1FCBDE8084000210820FFF7FC
:1015D800CBBC01210846FFF7C7FCBDE80840002145
:1015E8000120FFF7C1BC01210220FFF7BDFCBDE8C7
:1015F800084000210220FFF7B7BC01210420FFF7B3
:10160800B3FCBDE8084000210420FFF7ADBC012170
:101618001020FFF7A9FCBDE8084000211020FFF7C3
:10162800A3BC01212020FFF79FFCBDE80840002152
:101638002020FFF799BC01214020FFF795FCBDE869
:10164800084000214020FFF78FBC01214FF4807033
:10165800FFF78AFCBDE8084000214FF48070FFF7CF
:1016680083BC01218020FFF77FFCBDE808400021F2
:101678008020FFF779BC00BF000002400004024050
:1016880000080240000C0240001002400014024012
:1016980000180240001C0240002002402DE9F047DB
:1016A80000230F6801264FF0030C02E00133102BD2
:1016B80041D006FA03F232EA0704F7D1D0F800E085
:1016C8005C000CFA04F52EEA050EC0F800E091F86B
:1016D8000490D0F800A009FA04FE09F1FF394EEA97
:1016E8000A0EB9F1010FA846C0F800E06FEA050537
:1016F80015D8D0F808E005EA0E0585604D79D0F8D0
:1017080008E0A54045EA0E058560456825EA02021D
:1017180042608A7945689A4092B22A434260C26818
:1017280022EA0802C260CA79C568A24001332A4386
:10173800102BC260BDD1BDE8F08700BF4FF6FF7225
:101748000023C0E90023704782B04FF4803301932F
:10175800019B0B430193019BC361C161019BC36161
:10176800C3690193C369019302B0704703691942C1
:1017780014BF012000207047006980B2704700BF85
:101788004369194214BF012000207047406980B2A4
:10179800704700BF01837047418370470AB10183D6
:1017A80070474183704700BF4161704743695940A2
:1017B80041617047CB0800EB830001F0070110B4CA
:1017C800036A89000F248C4023EA04030362036A36
:1017D8005DF8044B8A401A430262704710B5D0F88E
:1017E800E43504461B699847032384F81231002026
:1017F80010BD00BF08B50422D0F8E43580F81221E6
:10180800DB689847002008BD08B5D0F8E035DB69EB
:1018180003B19847002008BD08B5D0F8E0351B6A29
:101828009847002008BD00BF08B5D0F8E0355B6ACE
:101838009847002008BD00BF002310B5194604468C
:10184800402201F011F9802120460023402201F0B6
:101858000BF9D4F8E435A078012284F812215B68EA
:101868009847002010BD00BF10B582B069460446F5
:1018780000F038F99DF8001001F01F03012B0AD081
:10188800022B16D073B101F08001204601F084F9D3
:10189800002002B010BD6946204600F0BDFA0020C5
:1018A80002B010BD6946204600F058F9002002B089
:1018B80010BD6946204600F0C7FA002002B010BDEE
:1018C80038B5044629B990F81131022B0DD0002003
:1018D80038BDD0F8E0355B69002BF8D090F81221BC
:1018E800032AF4D19847002038BDD0F83421D0F825
:1018F80020319A4210D9C1780129D0F82411A2EBDD
:10190800030208BFC918C0F8342108BFC0F8241161
:1019180092B200F0A1F8DAE7D0F83821B2FBF3F57B
:1019280003FB15255DB9934209D8D0F83C319A429A
:1019380005D22A4600F090F8C4F83C51C7E7D4F81D
:10194800E035DB681BB194F81221032A03D0204646
:1019580000F0B0F8BBE720469847F8E710B5044612
:1019680029B990F81131032B0DD0002010BDD0F803
:10197800E0359B69002BF8D090F81221032AF4D1A6
:101988009847002010BDD0F88C33D0F878239342C4
:1019980012D9C1780129D0F87C13A3EB020304BF44
:1019A8008918C0F87C139A4228BF1A46C0F88C33AD
:1019B80092B200F067F8D8E7D0F8E0351B691BB1A0
:1019C80090F81221032A03D0204600F063F8CCE7F0
:1019D8009847F9E7F0B583B0044615461E46089FB8
:1019E8000191FEF797FE20460199C4F8E065C4F816
:1019F800E475C4F8E85500F0F1FFD4F8E4351B6845
:101A08009847204603B0BDE8F040FEF7D1BE00BFBE
:101A180000207047D0F8E03510B504461B68984799
:101A2800D4F8E4359B689847002010BD08B5D0F875
:101A3800E0355B689847002008BD00BF38B51346FD
:101A480002250A46C0E94D3380F81151002101F002
:101A580081F8002038BD00BF08B513460A460021AA
:101A680001F078F8002008BD38B5134603250A466A
:101A7800C0E9E33380F81151002101F043F8002058
:101A880038BD00BF08B513460A46002101F03AF8F0
:101A9800002008BD10B5002304220446194680F82A
:101AA80011211A4601F056F8204600F0BBFE00202E
:101AB80010BD00BF10B5002305220446194680F862
:101AC80011211A4601F01EF8204600F0ABFE002056
:101AD80010BD00BF01EB810100EBC101B1F8880323
:101AE800704700BF90F8C8350B7090F8C9354B7037
:101AF80090F8CB2590F8CA3503EB02234B8090F879
:101B0800CD2590F8CC3503EB02238B8090F8CF25B8
:101B180090F8CE3503EB02239BB20122CB80C0F8AC
:101B28003C3180F81121704710B591F90030002B35
:101B3800044601DBCB8843B92046802101F02CF80C
:101B48002046BDE8104000F06DBE002101F024F8E9
:101B58002046BDE8104000F065BE00BF70B54B7868
:101B680082B00C460546092B11D8DFE803F0364849
:101B7800105B107105108D174B881E0A022E00F09D
:101B88002881032E00F0EC80012E00F08D80214684
:101B98002846FFF7C9FF002002B070BD89789C4E27
:101BA80001293170F3D890F81231022B00F09F8090
:101BB800032BECD1002900F01B8190F810110129AA
:101BC8002CD0FFF733FF317885F810112846FFF73E
:101BD80021FF2846FFF75EFFDDE790F81231023B50
:101BE800012BD4D8D0F814318949002B14BF032312
:101BF800012341F8083F0122FFF720FFCBE790F8C7
:101C08001231023B012BC2D84B88012BC3D1D0F82B
:101C1800E03500229B68C0F8142198472846FFF752
:101C280039FFB8E74B88012B00F09080022BB2D126
:101C38008B8813F0FF0FAED101691B0A4A68013B7C
:101C48001046042B69D8DFE803F0777C726D6400D6
:101C58008B88002B9BD1CB88002B98D190F8123120
:101C6800032B94D08C7804F07F0480F8134121462C
:101C780000F0D8FF2846FFF70DFF002C00F0B480D5
:101C8800022385F8123186E7CA88012A7FF47FAFDC
:101C980090F81231022B38D0032B7FF478AF00F57F
:101CA8008871FFF7CBFE76E7D0F8E83580781B68B7
:101CB8000DF106019847E288402A00F0A48095F8C3
:101CC8001231012B00F0A180BDF80630002B3FF443
:101CD80062AFE288002A3FF45EAF9A4228BF1A46F4
:101CE80001462846ADF80620FFF7A8FE53E700296D
:101CF80094D00121032380F8101180F81231FFF7E6
:101D080089FE2846FFF7C6FE45E74249FFF796FEDB
:101D180041E7052363F3061002464A602846FFF7A9
:101D2800B9FE38E7042363F306100246F5E70323F8
:101D380063F306100246F0E7012363F30610024638
:101D4800EBE7022363F306100246E6E7D0F8E02546
:101D5800C0F81431936898472846FFF79BFE1AE7A6
:101D6800DBB2052B3FF613AFDFE803F02B231B1381
:101D78000B03D0F8E83580789B690DF10601984788
:101D8800A2E7D0F8E83580785B690DF1060198473D
:101D98009AE7D0F8E83580781B690DF10601984775
:101DA80092E7D0F8E8358078DB680DF106019847AE
:101DB8008AE7D0F8E83580789B680DF106019847E6
:101DC80082E7D0F8E83580785B680DF1060198471E
:101DD8007AE7D0F8E03580789B6A0DF106019847DC
:101DE8004670C5F8EC056FE7012385F81231D2E695
:101DF800022380F8101180F81231FFF717FE2846E9
:101E0800FFF748FEC7E6082367E7082362E700BF35
:101E1800500100205401002038B590F81231032BEE
:101E28000ED10B79012B0D460AD8D0F8E0359B6806
:101E380004469847EB882BB92046FFF72BFE01E0B4
:101E4800FFF772FE002038BD38B54B788A88012B21
:101E58000C460546D1B204D0032B2BD06BB1002021
:101E680038BD90F81231022B0BD0032B39D02846FD
:101E78002146FFF759FE002038BD90F81231022B99
:101E880004D14A06EBD000F087FEE8E7032BEED139
:101E980013062ED401EB810100EBC10191F87233D6
:101EA8008BB31B4B0122DA601A4928460222FFF73E
:101EB800C5FDD4E790F81231022BE2D0032BD6D11E
:101EC80063881BB94A0601D000F066FED5F8E035F4
:101ED80021469B68284698472846FFF7DBFD0020E7
:101EE80038BD6388002BBAD14B06F5D000F070FEE0
:101EF800ECE701F07F0101EB810100EBC10191F8F2
:101F08001A31002BCDD1024B0022DA60CCE700BF9A
:101F1800500100205C01002010B3037870B403B3B3
:101F28000446C0F10106A31914F8015FDBB2002DC5
:101F3800F9D101335B00DCB2032513800C704D70BE
:101F480004785CB1022300255A1CD2B2CC548D54BB
:101F580010F8014F0233DBB2002CF5D170BC70478A
:101F6800704702242346E7E730B5054683B00023CF
:101F780003200193FEF72CFC2B68134C1A6901927D
:101F880006E0FEF725FC2B68013C1A69019218D07F
:101F9800019A002A4FF00300F3DA01990A4A41F046
:101FA80001010191019919611969019103E0196908
:101FB8000191013A02D00199C907F8D40320FEF72C
:101FC80007FC002003B030BD400D030030B4C478D6
:101FD8006CB900EB8200DA1C9210D0F8D05006D011
:101FE8002346013351F8040B28609A42F9D10020A6
:101FF80030BC7047033270B49510D0F8D0600BD065
:102008000A4600230133346842F8044B9D42F9D153
:1020180001EB850070BC7047084670BC704700BF74
:10202800012240239142F0B54280838054D0002998
:102038003ED04578067800214FF40063C0E90313C9
:10204800002D5ED04FF460674FF4886E4FF4806CBB
:1020580000F1140303EB850501F5106243F8042F22
:1020680002F50074AB42DC6302F12002F6D1C0F83D
:1020780014C0C0F8CCE0BEB100F18C0303EB8604B9
:1020880001F5A062B60043F8042F9C4202F1200239
:10209800F9D100F1CC0301F58052991943F8042FC6
:1020A800994202F58052F9D1C0F80C710020F0BDB8
:1020B8004FF4A062174BC28040F20C64164FDFF851
:1020C80068E0DFF868C0154AC17204801946062521
:1020D8000C26C0E90332BBE74FF4816502224FF4B6
:1020E800A0744FF0A043C172058002720C4FDFF854
:1020F80040E0DFF840C00B4AC48019460425082692
:10210800E7E729464FF460674FF4886E4FF4806C18
:10211800ADE700BF00000440000E04400008044082
:10212800000E005000080050400404400004044021
:10213800400400500004005038B5037A012B0446CF
:102148001AD1C268417A936B002565F3104309B12F
:1021580043F480139363D36823F4940323F0D803E0
:1021680043F01003D36004F10C00FFF7FDFEE378A1
:10217800012B28D0002038BD50F80C2FD36843F02D
:102188004003D360FFF7F0FE237A627A032B15BF72
:102198004FF480334FF440332D212F2161F317433F
:1021A8000AB143F48013E26814209363FEF712FB2C
:1021B800217AE2680329D36814D0D360E378012B2D
:1021C800D8D1E26804E0E2682A2363F30705956042
:1021D800956825F03E0343F02A0363F307059560ED
:1021E800002038BD43F48033D360156B0A4B03EAF3
:1021F800154343F4A15343F00D0363F31F451563DF
:10220800C820FEF7E7FAE36845F400051D63C82017
:10221800FEF7E0FAD2E700BF00E3FFFF0346002025
:10222800DA68936843F0010393607047034600201F
:10223800DA68936823F001039360704700B583B0B0
:1022480000230193019A0E4B42F020020192019A59
:1022580061F38A120192C168019A0A610A690192BE
:1022680003E00A690192013B02D0019A9206F8D470
:102278000320FEF7ADFA002003B05DF804FB00BFB1
:10228800400D030000B583B000230193019A0C4B65
:1022980042F010020192C168019A0A610A6901922A
:1022A80003E00A690192013B02D0019AD206F8D4F0
:1022B8000320FEF78DFA002003B05DF804FB00BF91
:1022C800400D0300C06808B5C368C3F3076222F075
:1022D8006002012962F31F6308D009B943F0804303
:1022E800C3603220FEF776FA002008BD43F00053A1
:1022F800F6E700BFC368586900F00100704700BFE7
:10230800C3685869C04300F001007047C368586942
:1023180000F00100704700BFC36858699B69184006
:10232800704700BFC3685868704700BF02691368E8
:1023380061F3010313607047C3680A4900229A6178
:102348004FF0FF325A615A605A619961C078064A63
:10235800996900280CBF1020002002430A439A61A3
:10236800002070470008008008383C00F8B5D0F815
:102378000C31026900211960136861F3CC231360E2
:10238800C37A012B054611D11068EB6829492A4CFC
:1023980040F00300106080225A629C62C3F8041166
:1023A8004FF4A071C3F80811C3F80C111021284686
:1023B800FFF744FF2846FFF765FF2E6900204FF01E
:1023C800FF3330617061B361F0616C7824B305F15B
:1023D800140202EB840CFF27A40052F8043F19688A
:1023E8000029ACBF00214FF0904162451960186187
:1023F8009F60F2D105F1500214440027FF2052F8E3
:10240800043F19680029ACBF00214FF09041A24257
:1024180019601F619860F2D1336943F480733361A6
:10242800EB78012B01D1054B33632846FFF784FF76
:102438000020F8BDC000800080004000030181003A
:1024480003699868C0F3410002281DBF20F002000C
:10245800C0F10300C0B20120704700BF034610B4AA
:102468001A69996993680C68C3F34103022B4FF00A
:10247800000014BF0346032363F30A040C60536887
:102488005DF8044B43F4807353607047F0B44B78A5
:102498000A78012B4FF0000400EB820524D00123B9
:1024A80093406D6D63F31F442E68330415D48A6816
:1024B80091F803C0CF880F49C2F30A0242F0805353
:1024C80043F400430CF0030243EA824307F00F028F
:1024D80043EA825331400B432B600369DA691443A2
:1024E800DC610020F0BC70479340AD6963F30F04D2
:1024F800DAE700BF007833EC30B44C780022012CC6
:10250800154612D0097800EB810401238B40646DD5
:1025180063F31F4501696FF3CF322260CB6923EA69
:102528000503002030BCCB6170470B7800EB8301BA
:102538009C4064F30F058C69ECE700BF2DE9F0437C
:102548004A78012A2FD00B784A6900EB83035C6D27
:1025580023682569FAB18E683244013AB2FBF6F273
:10256800C2F3090262F3DC4506FB02F262F31205CC
:102578002561C278012A04BF0A696261CA78012A02
:1025880047D0C3F3076262F07B0262F31F632360E4
:102598000020BDE8F0838A68C2F3120242F40022E8
:1025A80062F31C05E4E791F800804E6900EB880EA1
:1025B800DEF818703B68D7F810C07EB3D1F80890E1
:1025C800364C06EB0905013DB5FBF9F591F803908A
:1025D80004EAC545C6F312042C430CF0604C44EAE7
:1025E8000C04B9F1010F254646D03C61C478012C92
:1025F80050D00169486B02FA08F202434A63C3F3F8
:10260800076262F07B0262F31F633B600020BDE853
:10261800F0834A796AB343F00053B2E70CF06044A0
:1026280044F40024CD783C61C278012A2DD0012DD4
:10263800E5D100698068C00554BF43F0005343F0FA
:102648008053C3F3076060F07B0060F31F633B6057
:10265800002A9DD1B0B203308010DEF8D04097D068
:10266800C9681346013351F8042B22609842F9D106
:102678008EE743F0805384E769F35E753D61C27865
:10268800012AD6D10C697C61D3E70C697C61012DE4
:10269800B5D1CEE70A697A61B1E700BF0000F81F3B
:1026A80030B44B78012B82B027D00B784D6900EB02
:1026B80083035C6D23682269EDB18D684D6122F456
:1026C800C01205F07F0522F07F0245F400252A4359
:1026D8000092009A2261C278012A04BF0A696261E5
:1026E800C3F3076262F07B0262F31F63236000207A
:1026F80002B030BC70478D68E1E784694D69236892
:10270800226900924DB38A68954243D99DF80050DA
:102718004A6162F306058DF800509DF802200125F4
:1027280065F3C4028DF80220009A2261C278012A5A
:102738001FD0C3F3076565F07B0565F31F6323604E
:10274800002AD4D14B69002BD1D002690878516B8B
:10275800012383400B435363C9E722F4C01222F0DC
:102768007F0242F400220092009A2261C278012A74
:10277800DFD10A780D6900EB8200C3F30762816933
:1027880062F07B0262F31F6300204D61236002B098
:1027980030BC70479DF8002065F306028DF80020D4
:1027A800BBE700BF4B78012B0B7800EB830006D00A
:1027B800426D136843F40013136000207047826968
:1027C8001368002BF6DA43F0804343F400131360D8
:1027D800002070474B78012B0B7800EB8300CB78F7
:1027E8000CBF8069406D0268023B6FF35552012BA4
:1027F80098BF42F0805202600020704703699869D0
:10280800DB691840000C704700EB810103694A6DD1
:1028180090685B691840704703699869DB691840DC
:1028280080B27047436D084A1A6182B00092C2783C
:10283800012A06D100F5B96058614FF08022196865
:102848001A6002B0704700BF180008C0D0F81431F1
:10285800EBB103699A68D20710B5044616D5827A97
:1028680042B1D0F80C21D0F80C1122F0030060F32B
:1028780007020A605A6842F001025A600520FDF713
:10288800A9FF2269536823F00103536010BD704704
:10289800837A63B103699B68DB0708D5D0F80C31EC
:1028A800D0F80C2123F0030161F30703136070478C
:1028B80070B545780123064680F812315DB100F104
:1028C800140303EB8505FF2253F8044FD96BA2606C
:1028D800AB428A60F8D1336900224FF0FF311A61A8
:1028E80030465A61DA619961FFF7CCFC3046102115
:1028F800BDE87040FFF7A2BC4B78012B0B7800EBCA
:10290800830010D0436D1B68C3F307429B0202D5B6
:102918004FF48050704712F0020F14BF4FF400506C
:102928004FF44050704783691B689902C3F307420C
:1029380001D51020704712F0020F14BF202030205C
:10294800704700BFF0B44D78012D0C46034618D0EF
:10295800087803EB8003B2F5805F5E6D35682F461B
:102968000AD0B2F5005F28D0B2F5405F28D02AB966
:1029780062F3CF373D4601E045F400153560F0BC01
:1029880070470D7800EB8503102A9E6935682F463D
:102998001DD0202A11D0302AE9D1A90212D5002051
:1029A80060719969E3780A68023B60F35552012B1C
:1029B80098BF42F080520A60E1E745F00065DDE724
:1029C800AA0207D445F0044545F40045D6E7F0BC13
:1029D800FFF7E8BE00204871596DE3E7F8B50746F0
:1029E800FFF71EFB7D780126A7F812614DB3002181
:1029F8000C463B463A46402082F81811A2F81E11B0
:102A08000131A942C2E9480482F8196182F81B41E0
:102A1800C2F82C4102F12802EED1002211464020D2
:102A280083F87023A3F876230132AA42C3E9DE01B2
:102A380083F8711383F87313C3F8841303F128031D
:102A4800EED13846FFF7F2FB3846FFF775FB002159
:102A58003846FFF737FC3846FFF788FC3846BDE8AC
:102A6800F840FFF7DBBB00BF38B50C0619D401EB03
:102A7800810500EBC505282404FB010485F87013C3
:102A8800002185F87113C5F8782385F8733304F5A8
:102A98005C71022B04BF00230B71FFF7F7FC0020C9
:102AA80038BD01F07F0101EB810500EBC505282445
:102AB80004FB0104C5F82021012285F81811A5F8A6
:102AC8001E1185F81B3185F8192104F58C71E0E792
:102AD80010B54CB2002C0A460BDB282303FB01037C
:102AE80003F55C71E40F4C700A70FFF705FD0020D8
:102AF80010BD01F07F02282303FB020303F58C714C
:102B0800F0E700BF38B501F07F0505EB850400EB61
:102B1800C404002184F87053C4F8881384F871132E
:102B2800C4F88433C4F87C23C3782821012B01FB23
:102B3800050108BFEDB201F55C7108BFC4F8802338
:102B48001DB9FFF7ADFD002038BDFFF7F7FC0020E9
:102B580038BD00BF70B501F07F0505EB850400EBBB
:102B6800C404282101FB05010126C4F82C310023E7
:102B7800C4E9492284F8185184F81961C4F830313D
:102B880001F58C711DB9FFF78BFD002070BDFFF7B3
:102B9800D5FC002070BD00BF10B54CB2002C0A4611
:102BA8000DDB282303FB010303F55C710123E40F0C
:102BB8004C700A708B70FFF7F5FD002010BD01F016
:102BC8007F02282303FB020303F58C71EEE700BFA5
:102BD80038B54CB2002C0A460DDB282303FB010351
:102BE80003F55C710025E40F4C700A708D70FFF7D7
:102BF800F1FD284638BD01F07F02282303FB0203BC
:102C080003F58C71EEE700BF08B50B0603D4FFF798
:102C180039FB002008BD01F07F01FFF70FFB002002
:102C280008BD00BF02690023106861F30A1303435B
:102C380013607047034603201A6953686FF3410312
:102C48005360FDF7C7BD00BF034603201A695368E8
:102C580043F002035360FDF7BDBD00BF0B0606D469
:102C6800282303FB010101F55C71FFF745BE01F064
:102C78007F01282303FB010101F58C71FFF73CBE9E
:102C88000B0606D4282303FB010101F55C71FFF74D
:102C980059BE01F07F01282303FB010101F58C7166
:102CA800FFF750BE2DE9F04F83B00446FFF728FB2D
:102CB80018B9002003B0BDE8F08F2046FFF72CFBC1
:102CC80080460028F5D0C0F3074313F008000093AE
:102CD80040F0E680009B590742D418F0020F5FFAD3
:102CE80088F602D0E36802225A61B8F1000FC0F2F8
:102CF800BF8118F4006FC8F3072540F044813307FB
:102D080008D5B14B1B682046DB689847E368082262
:102D18005A610120F70600F19781EE0600F158810B
:102D2800A90600F11781009BDA0609D5A64B1B6896
:102D38002046DB699847E3684FF480125A61012006
:102D4800009B9B06B6D5A04B1B6820461B6A98477C
:102D5800E3684FF4001201205A6103B0BDE8F08F18
:102D68002046FFF759FD8146002800F0A081002386
:102D780004F1180704F58C75CDF804809B4609E02A
:102D88005FEA59090BF1010B07F1040705F1280562
:102D980000F08B8119F0010FF2D021695FFA8BFAEC
:102DA80008694A6B04EB8A0322FA0AF29B69D2018A
:102DB8009B68D2B202431A40D3B2D20713D5824AD3
:102DC8004B6B3E681268012000FA0BFC23EA0C03E7
:102DD8004B635368B060514620469847E678012E09
:102DE80000F09F8101235E0702D53A6804239360AF
:102DF800180702D53A6808239360D90602D53A68BD
:102E0800102393609A0602D53A68202393605E06E1
:102E180002D53A6840239360980703D53B6802229D
:102E28009A6013461906ABD5D5E90513AA68D7F8F1
:102E380000C0CE1AB242DCF8180028BF324603326E
:102E480086B2B6EB920F604620D826E021B3D5E9CA
:102E58000231984528BF98461FFA88F3FFF7B6F85D
:102E6800D5E90513EA68434408F1030642448B4256
:102E78004FEA9606EA60AB6180F06E81D7F800C031
:102E8800DCF8182092B29642604606D29942A1EB2D
:102E9800030852462046D9D86046802383606FE7EE
:102EA8002046FFF7ABFC0546002800F0FC80464FA3
:102EB80004F55E7A00264FF0040906E06D0806F175
:102EC80001060AF1280A00F0EE80EB07F6D5F1B208
:102ED80020460191FFF798FCC3B2C0071CD504F146
:102EE8005402012352F8262001999360E378012BBC
:102EF80007D11269DAF80030C2F312029B1ACAF835
:102F080010303B6820461B68984794F803B0BBF123
:102F1800010F00F014810123990705D504F154022B
:102F2800022352F8262093605A0706D504F154026A
:102F3800042352F82620C2F808901807BED53B682B
:102F480020469B68984704F15402082352F826202B
:102F58009360B3E72046FFF781FAE3682046DD680F
:102F6800FFF76EFA032800F0B780012140220523FD
:102F7800A170A28063F38D25E3684FF40052DD60F1
:102F880001205A61CFE6104B1B6820465B699847C1
:102F9800D4E9033291684FF400625A61A37A83B18D
:102FA800CA070ED5D4F80C3108491A6842F0010254
:102FB8001A601A6842F003021A600B6943F00603AC
:102FC8000B6101209BE600BF8800002000ED00E0B7
:102FD800226953684FF0000823F00103414653600B
:102FE8002046FFF72BF9677841465FB104F11403D7
:102FF80003EB8707FF2253F8046FD86BB2609F4238
:103008008260F8D10F22236962F307082F2262F346
:1030180007014FF0FF304FF001129861DA61C3F8F1
:10302800148019611A686FF30A121A602046FFF7B4
:10303800F9FB4E4BE2681B684FF480511B695161E4
:103048002046984701206BE6E3689A6922F010024F
:103058009A611E6AC6F34342022A06F00F0744D05B
:10306800062A26D09A6942F010029A61012054E695
:10307800A37A43B1D4F80C31D4F80C2123F003011E
:1030880061F307031360226938495368096823F01C
:103098000103536020468B699847E3684FF000426C
:1030A8005A61012025E6012014E6DDF8048001209C
:1030B80013E607EB870704EBC707082204F5B96195
:1030C8002046FEF797FFD7F88823E368C6F30A1669
:1030D8001644C7F88863C5E700214FF40072092336
:1030E800A170A28063F38D2546E747F6F07232425D
:1030F800B8D007EB870704EBC707C6F30A16D7F85B
:103108007C1332462046FEF775FFD7F87C03D7F8C4
:103118008813E36830443144C7F87C03C7F8881340
:10312800A0E7BBF1000F7FF45DAE94F81131042BDA
:103138007FF458AE2046FFF775FB334653E6002E62
:103148007FF4E9AE94F81131052B7FF4E4AE204604
:10315800FFF768FB5B46DFE621692E784B6B386822
:103168000122B24023EA02034B6396E6880000205E
:1031780065230B8000487047B800002038B51B4C09
:103188002368012B03F1010202D02260002038BD20
:1031980023790022012B2260F8D0A168E368B1F5F9
:1031A800006F15D099421DD08AB214D9C1F50063B9
:1031B800402B12D9403B40312361A16040230C4988
:1031C80001250A4481212571FFF7C4FC002038BD80
:1031D800A2603BB111465B1AEAE719440025A160D9
:1031E8002561ECE700232371D0E700BF60010020D0
:1031F800E417002038B50A4B0A4C1B6801EB810123
:1032080000EBC10105461B68B1F8881320469847B2
:103218002846224601214023FFF774FC002038BDD0
:10322800E41F0020A417002010B581210446FFF7F1
:103238004FFC20460121FFF74BFC002010BD00BFCA
:1032480010B58121044640220223FFF70DFC2046D9
:10325800012140220223FFF707FC20460121034AEF
:103268004023FFF74FFC002010BD00BFA41700202B
:1032780038B511490B79012B01D0002038BD0B69F5
:10328800B3B1402B8A680BD8D51800248D6092B250
:103298000C610A490A448121FFF75CFC002038BD13
:1032A800403B02F140040B618C6092B24023F0E78E
:1032B8000B71002038BD00BF60010020E41700201A
:1032C800014B1860704700BFE41F002070B50D4E19
:1032D8000D4D761BB61006D00024013455F8043B7A
:1032E8009847A642F9D1094E094D761BFDF744F8D7
:1032F800B61006D00024013455F8043B9847A6427E
:10330800F9D170BDB0340008B0340008B0340008FA
:10331800B03400082DE9F041FDF730F8FCF7CEFF96
:103328001848194CDFF86C80184F4FF48041064656
:10333800FEF730FAFCF724FF4FF480413046FEF7E1
:103348002BFA134B00251D703846FDF79DFF238887
:103358009BB2638063889BB2B3F5AF7F4FF4805113
:1033680030460BD9002DEFD1FEF714FA23889BB213
:10337800012518F80300FCF751FFE5E7FEF70CFA02
:103388000025E1E7000C02404C010020002201402A
:103398007511002074010020002103E00B4B5B58DD
:1033A800435004310A480B4B42189A42F6D30A4A52
:1033B80002E0002342F8043B084B9A42F9D3FDF798
:1033C80087F8FFF783FFFFF7A5FF7047B0340008C1
:1033D800000000204C0100204C010020E81F0020C4
:1033E800FEE700000000020316032A033903001059
:1033F8000010001000100010001000100010001045
:103408000010001000100010001000100010001034
:10341800001000100010001053544D6963726F655E
:103428006C656374726F6E696373000053544D3337
:1034380032204D4944492062726964676520696E8B
:10344800204853206D6F64650000000053544D33CD
:1034580032204D4944492062726964676520696E6B
:10346800204653204D6F6465000000003030303036
:1034780030303030303530420000000030303030ED
:103488003030303030353043000000004D49444979
:1034980020436F6E666967004D49444920496E7440
:0834A8006572666163650000B6
:1034B00000000000000000000102030406070809E4
:1034C000007A030A3D060008410600084906000884
:1034D00055060008450600084D060008510600087C
:1034E0001201000100000040830440570001010266
:1034F00003010000040309040A0600020000004062
:103500000100000059060008650600087106000861
:103510008D060008B5060008DD060008F90600085B
:10352000E1070008E50700080000000001020304AD
:1035300001020304060708098C0000206519000831
:10354000C91800087118000811180008411800086F
:10355000FD170008E51700082118000831180008B9
:10356000000000000000000009026500020100C028
:1035700050090400000001010000092401000109B4
:1035800000010109040100020103000007240100F9
:103590000141000624020101000624020202000982
:1035A00024030103010201000924030206010101B1
:1035B0000009050102400000000005250101010984
:1035C0000581024000000000052501010300000004
:1035D00049320008313200080000000000000000FD
:1035E0000000000079320008FD3100088531000834
:0C35F0000000000000000000793100081D
:04000005080033A11B
:00000001FF
